:020000040800F2
:100000000000032015FE00083BE9000847E900084E
:100010004DE9000853E9000859E900080000000014
:100020000000000000000000000000005FE9000880
:100030006BE900080000000077E9000883E9000888
:1000400065FE000865FE000865FE000865FE000804
:1000500065FE000865FE000865FE000865FE0008F4
:1000600093E9000865FE000865FE000865FE0008CB
:10007000A1E9000865FE0008B5E9000865FE000872
:10008000C9E90008DDE90008F1E900080DEA000807
:1000900021EA000865FE000865FE000865FE00080C
:1000A00065FE000835EA000865FE000865FE0008E8
:1000B00065FE000865FE000865FE000865FE000894
:1000C00065FE000865FE000865FE000865FE000884
:1000D00065FE000849EA00085DEA000871EA0008C8
:1000E00065FE000865FE000865FE000865FE000864
:1000F00065FE000865FE000865FE000865FE000854
:1001000065FE000865FE000865FE000865FE000843
:1001100065FE000865FE000885EA0008A1EA0008FF
:10012000B5EA0008C9EA0008DDEA0008F1EA0008BB
:1001300065FE000865FE000865FE000805EB000886
:1001400019EB000865FE000865FE000865FE000862
:1001500065FE00082DEB000865FE000841EB000875
:1001600065FE000865FE000865FE000865FE0008E3
:1001700065FE000865FE000865FE0008000000003E
:1001800065FE000865FE000855EB000869EB0008F5
:1001900065FE000865FE000865FE000865FE0008B3
:0C01A000000000000000000065FE0008E8
:1001B00010B5054C237833B9044B13B10448AFF3A1
:1001C00000800123237010BDD0000020000000003B
:1001D000F017010808B5034B1BB103490348AFF3FF
:1001E000008008BD00000000D4000020F0170108C6
:1001F00081F0004102E000BF83F0004330B54FEAD8
:1002000041044FEA430594EA050F08BF90EA020F44
:100210001FBF54EA000C55EA020C7FEA645C7FEAD7
:10022000655C00F0E2804FEA5454D4EB5555B8BFFA
:100230006D420CDD2C4480EA020281EA030382EA6B
:10024000000083EA010180EA020281EA0303362DFD
:1002500088BF30BD11F0004F4FEA01314FF4801CD0
:100260004CEA113102D0404261EB410113F0004FE2
:100270004FEA03334CEA133302D0524263EB430399
:1002800094EA050F00F0A780A4F10104D5F1200E37
:100290000DDB02FA0EFC22FA05F2801841F1000192
:1002A00003FA0EF2801843FA05F359410EE0A5F166
:1002B00020050EF1200E012A03FA0EFC28BF4CF097
:1002C000020C43FA05F3C01851EBE37101F000454D
:1002D00007D54FF0000EDCF1000C7EEB00006EEB5A
:1002E0000101B1F5801F1BD3B1F5001F0CD34908E4
:1002F0005FEA30004FEA3C0C04F101044FEA44523B
:1003000012F5800F80F09A80BCF1004F08BF5FEAC1
:10031000500C50F1000041EB045141EA050130BDA1
:100320005FEA4C0C404141EB0101013C28BFB1F5B3
:10033000801FE9D291F0000F04BF01460020B1FAFE
:1003400081F308BF2033A3F10B03B3F120020CDAD1
:100350000C3208DD02F1140CC2F10C0201FA0CF0AF
:1003600021FA02F10CE002F11402D8BFC2F1200C14
:1003700001FA02F120FA0CFCDCBF41EA0C019040CA
:10038000E41AA2BF01EB0451294330BD6FEA040413
:100390001F3C1CDA0C340EDC04F11404C4F12002FE
:1003A00020FA04F001FA02F340EA030021FA04F310
:1003B00045EA030130BDC4F10C04C4F1200220FA67
:1003C00002F001FA04F340EA0300294630BD21FAA5
:1003D00004F0294630BD94F0000F83F4801306BF6B
:1003E00081F480110134013D4EE77FEA645C18BF5F
:1003F0007FEA655C29D094EA050F08BF90EA020FF6
:1004000005D054EA000C04BF1946104630BD91EAED
:10041000030F1EBF0021002030BD5FEA545C05D1F0
:100420004000494128BF41F0004130BD14F580042F
:100430003CBF01F5801130BD01F0004545F0FE41A3
:1004400041F470014FF0000030BD7FEA645C1ABFD8
:10045000194610467FEA655C1CBF0B46024650EA0F
:10046000013406BF52EA033591EA030F41F400213B
:1004700030BD00BF90F0000F04BF0021704730B5C1
:100480004FF4806404F132044FF000054FF0000196
:1004900050E700BF90F0000F04BF0021704730B557
:1004A0004FF4806404F1320410F0004548BF40422C
:1004B0004FF000013EE700BF42004FEAE2014FEA81
:1004C00031014FEA02701FBF12F07F4393F07F4F5C
:1004D00081F06051704732F07F4208BF704793F05F
:1004E0007F4F04BF41F40021704730B54FF4607472
:1004F00001F0004521F000411CE700BF50EA010275
:1005000008BF704730B54FF000050AE050EA01021D
:1005100008BF704730B511F0004502D5404261EB8D
:1005200041014FF4806404F132045FEA915C3FF4CE
:10053000D8AE4FF003025FEADC0C18BF03325FEA6B
:10054000DC0C18BF033202EBDC02C2F1200300FA1C
:1005500003FC20FA02F001FA03FE40EA0E0021FA41
:1005600002F11444BDE600BF70B54FF0FF0C4CF42F
:10057000E06C1CEA11541DBF1CEA135594EA0C0FE1
:1005800095EA0C0F00F0DEF82C4481EA030621EA1C
:100590004C5123EA4C5350EA013518BF52EA033557
:1005A00041F4801143F4801338D0A0FB02CE4FF009
:1005B0000005E1FB02E506F00042E0FB03E54FF039
:1005C0000006E1FB03569CF0000F18BF4EF0010E31
:1005D000A4F1FF04B6F5007F64F5407404D25FEA2D
:1005E0004E0E6D4146EB060642EAC62141EA5551E0
:1005F0004FEAC52040EA5E504FEACE2EB4F1FD0C22
:1006000088BFBCF5E06F1ED8BEF1004F08BF5FEA9F
:10061000500E50F1000041EB045170BD06F0004651
:1006200046EA010140EA020081EA0301B4EB5C04FE
:10063000C2BFD4EB0C0541EA045170BD41F48011F6
:100640004FF0000E013C00F3AB8014F1360FDEBF1B
:10065000002001F0004170BDC4F10004203C35DAF7
:100660000C341BDC04F11404C4F1200500FA05F37A
:1006700020FA04F001FA05F240EA020001F000421B
:1006800021F0004110EBD37021FA04F642EB060191
:100690005EEA430E08BF20EAD37070BDC4F10C04BB
:1006A000C4F1200500FA04F320FA05F001FA04F27F
:1006B00040EA020001F0004110EBD37041F100016B
:1006C0005EEA430E08BF20EAD37070BDC4F1200576
:1006D00000FA05F24EEA020E20FA04F301FA05F2DE
:1006E00043EA020321FA04F001F0004121FA04F286
:1006F00020EA020000EBD3705EEA430E08BF20EA56
:10070000D37070BD94F0000F0FD101F0004640008F
:1007100041EB010111F4801F08BF013CF7D041EA11
:10072000060195F0000F18BF704703F00046520015
:1007300043EB030313F4801F08BF013DF7D043EAE6
:100740000603704794EA0C0F0CEA135518BF95EA9C
:100750000C0F0CD050EA410618BF52EA4306D1D123
:1007600081EA030101F000414FF0000070BD50EA42
:10077000410606BF1046194652EA430619D094EACC
:100780000C0F02D150EA013613D195EA0C0F05D1B6
:1007900052EA03361CBF104619460AD181EA03010A
:1007A00001F0004141F0FE4141F470014FF00000C2
:1007B00070BD41F0FE4141F4780170BD70B54FF05D
:1007C000FF0C4CF4E06C1CEA11541DBF1CEA1355DD
:1007D00094EA0C0F95EA0C0F00F0A7F8A4EB0504BF
:1007E00081EA030E52EA03354FEA013100F08880B6
:1007F0004FEA03334FF0805545EA131343EA12637F
:100800004FEA022245EA111545EA10654FEA002633
:100810000EF000419D4208BF964244F1FD0404F5EC
:10082000407402D25B084FEA3202B61A65EB030548
:100830005B084FEA32024FF480104FF4002CB6EB05
:10084000020E75EB030E22BFB61A754640EA0C0085
:100850005B084FEA3202B6EB020E75EB030E22BFC5
:10086000B61A754640EA5C005B084FEA3202B6EB06
:10087000020E75EB030E22BFB61A754640EA9C00C5
:100880005B084FEA3202B6EB020E75EB030E22BF95
:10089000B61A754640EADC0055EA060E18D04FEA53
:1008A000051545EA16754FEA06164FEAC30343EAF3
:1008B00052734FEAC2025FEA1C1CC0D111F4801FC0
:1008C0000BD141EA00014FF000004FF0004CB6E7B9
:1008D00011F4801F04BF01430020B4F1FD0C88BF58
:1008E000BCF5E06F3FF6AFAEB5EB030C04BFB6EB63
:1008F000020C5FEA500C50F1000041EB045170BD56
:100900000EF0004E4EEA113114EB5C04C2BFD4EB82
:100910000C0541EA045170BD41F480114FF0000E06
:10092000013C90E645EA060E8DE60CEA135594EA82
:100930000C0F08BF95EA0C0F3FF43BAF94EA0C0F85
:100940000AD150EA01347FF434AF95EA0C0F7FF4FA
:1009500025AF104619462CE795EA0C0F06D152EA4E
:1009600003353FF4FDAE1046194622E750EA410632
:1009700018BF52EA43067FF4C5AE50EA41047FF443
:100980000DAF52EA43057FF4EBAE12E74FF0FF3CA8
:1009900006E000BF4FF0010C02E000BF4FF0010C79
:1009A0004DF804CD4FEA410C7FEA6C5C4FEA430CF2
:1009B00018BF7FEA6C5C1BD001B050EA410C0CBF41
:1009C00052EA430C91EA030F02BF90EA020F0020A3
:1009D000704710F1000F91EA030F58BF994208BF0A
:1009E00090422CBFD8176FEAE37040F001007047C7
:1009F0004FEA410C7FEA6C5C02D150EA013C07D11E
:100A00004FEA430C7FEA6C5CD6D152EA033CD3D068
:100A10005DF8040B704700BF8446104662468C4662
:100A20001946634600E000BF01B5FFF7B7FF002895
:100A300048BF10F1000F01BD4DF808EDFFF7F4FFBE
:100A40000CBF012000205DF808FB00BF4DF808ED49
:100A5000FFF7EAFF34BF012000205DF808FB00BF6C
:100A60004DF808EDFFF7E0FF94BF012000205DF88E
:100A700008FB00BF4DF808EDFFF7CEFF94BF012043
:100A800000205DF808FB00BF4DF808EDFFF7C4FF3C
:100A900034BF012000205DF808FB00BF4FEA41028F
:100AA000B2F1E04324BFB3F5001CDCF1FE5C0DD9CC
:100AB00001F0004C4FEAC0024CEA5070B2F1004F16
:100AC00040EB830008BF20F00100704711F0804F19
:100AD00021D113F13872BCBF01F00040704741F4DE
:100AE00080114FEA5252C2F11802C2F1200C10FAE2
:100AF0000CF320FA02F018BF40F001004FEAC123C6
:100B00004FEAD32303FA0CFC40EA0C0023FA02F369
:100B10004FEA4303CCE77FEA625307D150EA01333F
:100B20001EBF4FF0FE4040F44000704701F000400F
:100B300040F0FE4040F40000704700BF80F00040ED
:100B400002E000BF81F0004142001FBF5FEA4103A5
:100B500092EA030F7FEA226C7FEA236C6AD04FEAA5
:100B60001262D2EB1363C1BFD218414048404140EA
:100B7000B8BF5B42192B88BF704710F0004F40F49C
:100B8000000020F07F4018BF404211F0004F41F4B8
:100B9000000121F07F4118BF494292EA030F3FD084
:100BA000A2F1010241FA03FC10EB0C00C3F1200397
:100BB00001FA03F100F0004302D5494260EB400026
:100BC000B0F5000F13D3B0F1807F06D340084FEA91
:100BD000310102F10102FE2A51D2B1F1004F40EB86
:100BE000C25008BF20F0010040EA030070474900EE
:100BF00040EB0000013A28BFB0F5000FEDD2B0FA8B
:100C000080FCACF1080CB2EB0C0200FA0CF0AABFAD
:100C100000EBC25052421843BCBFD040184370474B
:100C200092F0000F81F4000106BF80F40000013251
:100C3000013BB5E74FEA41037FEA226C18BF7FEA28
:100C4000236C21D092EA030F04D092F0000F08BF6A
:100C50000846704790EA010F1CBF0020704712F051
:100C60007F4F04D1400028BF40F00040704712F190
:100C700000723CBF00F50000704700F0004343F0F5
:100C8000FE4040F4000070477FEA226216BF08462B
:100C90007FEA23630146420206BF5FEA412390EAEE
:100CA000010F40F4800070474FF0000304E000BFE4
:100CB00010F0004348BF40425FEA000C08BF704795
:100CC00043F0964301464FF000001CE050EA010259
:100CD00008BF70474FF000030AE000BF50EA01026E
:100CE00008BF704711F0004302D5404261EB41015B
:100CF0005FEA010C02BF84460146002043F0B64380
:100D000008BFA3F18053A3F50003BCFA8CF2083AA4
:100D1000A3EBC25310DB01FA02FC634400FA02FCAD
:100D2000C2F12002BCF1004F20FA02F243EB0200B4
:100D300008BF20F00100704702F1200201FA02FC16
:100D4000C2F1200250EA4C0021FA02F243EB020009
:100D500008BF20EADC7070474FF0FF0C1CEAD0524D
:100D60001EBF1CEAD15392EA0C0F93EA0C0F6FD00E
:100D70001A4480EA010C400218BF5FEA41211ED0EC
:100D80004FF0006343EA501043EA5111A0FB0131D8
:100D90000CF00040B1F5000F3EBF490041EAD371AD
:100DA0005B0040EA010062F17F02FD2A1DD8B3F129
:100DB000004F40EBC25008BF20F00100704790F098
:100DC000000F0CF0004C08BF49024CEA502040EAEA
:100DD00051207F3AC2BFD2F1FF0340EAC2507047B0
:100DE00040F400004FF00003013A5DDC12F1190FEE
:100DF000DCBF00F000407047C2F10002410021FA60
:100E000002F1C2F1200200FA02FC5FEA310040F177
:100E1000000053EA4C0308BF20EADC70704792F0F0
:100E2000000F00F0004C02BF400010F4000F013A28
:100E3000F9D040EA0C0093F0000F01F0004C02BF23
:100E4000490011F4000F013BF9D041EA0C018FE792
:100E50000CEAD15392EA0C0F18BF93EA0C0F0AD098
:100E600030F0004C18BF31F0004CD8D180EA0100BE
:100E700000F00040704790F0000F17BF90F0004F57
:100E8000084691F0000F91F0004F14D092EA0C0F39
:100E900001D142020FD193EA0C0F03D14B0218BFCC
:100EA000084608D180EA010000F0004040F0FE4012
:100EB00040F40000704740F0FE4040F440007047AE
:100EC0004FF0FF0C1CEAD0521EBF1CEAD15392EA2D
:100ED0000C0F93EA0C0F69D0A2EB030280EA010C1D
:100EE00049024FEA402037D04FF0805343EA1111B6
:100EF00043EA10130CF000408B4238BF5B0042F114
:100F00007D024FF4000C8B4224BF5B1A40EA0C00B8
:100F1000B3EB510F24BFA3EB510340EA5C00B3EBEA
:100F2000910F24BFA3EB910340EA9C00B3EBD10FD8
:100F300024BFA3EBD10340EADC001B0118BF5FEA2A
:100F40001C1CE0D1FD2A3FF650AF8B4240EBC25053
:100F500008BF20F0010070470CF0004C4CEA502014
:100F60007F32C2BFD2F1FF0340EAC250704740F463
:100F700000004FF00003013A37E792F0000F00F055
:100F8000004C02BF400010F4000F013AF9D040EAD3
:100F90000C0093F0000F01F0004C02BF490011F467
:100FA000000F013BF9D041EA0C0195E70CEAD1535F
:100FB00092EA0C0F08D142027FF47DAF93EA0C0F46
:100FC0007FF470AF084676E793EA0C0F04D14B022A
:100FD0003FF44CAF08466EE730F0004C18BF31F0DC
:100FE000004CCAD130F000427FF45CAF31F00043D6
:100FF0007FF43CAF5FE700BF4FF0FF3C06E000BF6F
:101000004FF0010C02E000BF4FF0010C4DF804CD91
:101010004FEA40024FEA41037FEA226C18BF7FEAA1
:10102000236C11D001B052EA530C18BF90EA010FA3
:1010300058BFB2EB030088BFC81738BF6FEAE17032
:1010400018BF40F0010070477FEA226C02D15FEACE
:10105000402C05D17FEA236CE4D15FEA412CE1D03A
:101060005DF8040B704700BF844608466146FFE701
:101070000FB5FFF7C9FF002848BF10F1000F0FBDE3
:101080004DF808EDFFF7F4FF0CBF012000205DF8DC
:1010900008FB00BF4DF808EDFFF7EAFF34BF012061
:1010A00000205DF808FB00BF4DF808EDFFF7E0FFFA
:1010B00094BF012000205DF808FB00BF4DF808ED4B
:1010C000FFF7D2FF94BF012000205DF808FB00BFAE
:1010D0004DF808EDFFF7C8FF34BF012000205DF890
:1010E00008FB00BF4FEA40024FEA41037FEA226C4F
:1010F00002D15FEA402C08D17FEA236C02D15FEA7B
:10110000412C02D14FF0000070474FF001007047B2
:101110004FEA4002B2F1FE4F0FD34FF09E03B3EB04
:1011200012620DD94FEA002343F0004310F0004F44
:1011300023FA02F018BF404270474FF0000070479A
:1011400012F1610F01D1420205D110F0004008BF39
:101150006FF0004070474FF00000704742000ED221
:10116000B2F1FE4F0BD34FF09E03B3EB126209D4E2
:101170004FEA002343F0004323FA02F070474FF098
:101180000000704712F1610F01D1420202D14FF00D
:10119000FF3070474FF00000704700BF53B94AB9A5
:1011A000002908BF00281CBF4FF0FF314FF0FF306F
:1011B00001F0BEB8ADF1080C6DE904CE00F006F800
:1011C000DDF804E0DDE9022304B070472DE9F047C3
:1011D000089E0D4604468E46002B40F082808A42CF
:1011E000174646D9B2FA82F24AB1C2F1200105FA95
:1011F00002F320FA01F1974041EA030E94404FEACE
:101200001748230CBEFBF8FCB9B208FB1CEE43EAFE
:101210000E430CFB01F098420AD9FB180CF1FF3584
:1012200080F01681984240F21381ACF1020C3B44ED
:101230001B1AA4B2B3FBF8F008FB103344EA0344D2
:1012400000FB01F1A14209D93C1900F1FF3380F004
:101250000181A14240F2FE8002383C44641A40EA17
:101260000C4000211EB1D4400023C6E90043BDE874
:10127000F08702B9FFDEB2FA82F2002A4FD1CB1B0F
:101280004FEA174E1FFA87F80121B3FBFEFC250C2D
:101290000EFB1C3345EA034508FB0CF3AB4207D9B0
:1012A0007D190CF1FF3002D2AB4200F2E780844698
:1012B000ED1AA3B2B5FBFEF00EFB105543EA054450
:1012C00008FB00F8A04507D93C1900F1FF3302D212
:1012D000A04500F2D7801846A4EB080440EA0C4071
:1012E000C0E78B4208D9002E00F0AF800021C6E98C
:1012F00000050846BDE8F087B3FA83F100294BD119
:10130000AB4202D3824200F2B780841A65EB03033A
:1013100001209E46002EAAD0C6E9004EA7E7C2F1E2
:10132000200C01FA02F3974020FA0CF04FEA174E16
:1013300021FA0CFC1843BCFBFEF1050C0EFB11CC92
:101340001FFA87F845EA0C4501FB08F3AB4204FAA3
:1013500002F409D97D1901F1FF3C80F08B80AB428A
:1013600040F2888002393D44EB1A85B2B3FBFEF0AF
:101370000EFB103345EA034500FB08F3AB4207D9E7
:101380007D1900F1FF3C71D2AB426FD902383D4468
:10139000EB1A40EA014178E7C1F1200C8B4022FAB8
:1013A0000CF71F4320FA0CF405FA01F34FEA174E2D
:1013B00025FA0CF51C43230CB5FBFEF91FFA87F840
:1013C0000EFB195543EA054509FB08FAAA4502FA3E
:1013D00001F200FA01F308D97D1909F1FF3047D273
:1013E000AA4545D9A9F102093D44A5EB0A05A4B2D5
:1013F000B5FBFEF00EFB105544EA054400FB08F86F
:10140000A04507D93C1900F1FF352DD2A0452BD9B5
:1014100002383C4440EA0940A4EB0804A0FB0289DE
:101420004C45C6464D4619D316D05EB1B3EB0E02FD
:1014300064EB050404FA0CFCCA404CEA0202CC40FE
:10144000C6E900240021BDE8F087314630460EE7AA
:10145000AC46EDE6184601E74345E6D2B8EB020E8E
:1014600069EB07050138E0E72846D3E760468FE7D8
:101470008146BAE7614677E708464BE7ACF1020CD4
:101480003D4415E702383C4426E700BF03685A0094
:101490004CBF43F0004323F000431844704700BFA3
:1014A0002DE9F84329B34F1E044615463E464FF03A
:1014B000000808EB060101EBD171491004EBC109EA
:1014C0004846FFF7E3FF0346C80008308F42204438
:1014D00009D0AB4209D8FFF7D9FF0138A8420AD298
:1014E00001F10108E5E7AB4205D9884501D04E1E60
:1014F000DFE74FF000094846BDE8F883012807D030
:10150000022807D0044B00280CBF18460020704763
:101510000248704702487047C11B0008C51B0008FD
:10152000C91B000830B5234B83B004468D1E3BB366
:1015300001A92846AFF30080E8B101992A46FFF7D8
:10154000AFFF0146B8B1FFF7A1FF4B68A064012BC4
:101550002BD0002B01F1040023DBFFF797FF0023C2
:10156000C4E913030368002B10DBFFF78FFF206132
:10157000002003B030BD00230920236103B030BD3B
:101580000D490E48091AC9100191D7E7C3F303604A
:10159000FFF7B4FF0028206114BF0020092003B02A
:1015A00030BD0123C4E91303DCE7002323610520D8
:1015B000DFE700BF00000000202C0108E828010838
:1015C0000368DA0710B5044606D49B0700F148000B
:1015D00009D500F04BFC2368590709D51A070ED529
:1015E000DB0613D510BD00F039FC23685907F5D48C
:1015F00004F1D00000F042FC23681A07F0D404F58F
:10160000A87000F043FC2368DB06EBD404F5E87017
:10161000BDE8104000F07EBC0346006800B11844ED
:10162000704700BF09207047704700BF70B504467F
:101630000E46316C2046FFF775FF054688B9336CBE
:101640006361324623692146012098470828F0D07B
:10165000072806D12846316CFFF7E6FF301D00F061
:10166000F1FB0FF0D5FF00BF2DE9F0470D1D064639
:1016700014460FCDADF5727D0DF10C0CACE80F00EA
:101680000FCDACE80F000FCDACE80F0095E80F00D0
:1016900002ADF768D6F818808CE80F0000232B60A5
:1016A00021E02B6C73614FF4F07229467AA80FF099
:1016B000E9FF33697AAA314650469847889BCDE9BD
:1016C000005821466B648146334632460120B847B4
:1016D0000446E8B94FF4F0727AA928460FF0D2FF19
:1016E000B9F1080F1BD1296C3046FFF71BFF0934F5
:1016F0005FFA84FA81460028D3D0AB6B4AF0100120
:10170000CDE9005832466B6401203346B84708B132
:101710004FF0090948460DF5727DBDE8F087B9F133
:10172000070FF5D12046296CFFF77EFF03A800F0D4
:1017300089FB00BF406C7047F0B5CB6B0B640E1D8E
:101740000F4605460FCEF9B001AC0FC40FCE0FC443
:101750000FCE0FC496E80F004FF0FF3684E80F005D
:10176000009606E02B696A462946984708280446F1
:1017700008D110992846FFF7D5FE0028F2D009209D
:1017800079B0F0BD6846FFF71BFF062CF7D139464C
:101790002846FFF74BFF00BF30B4DD6BC1608261AC
:1017A00019461D64002230BC5EE700BF70B5C668F4
:1017B00043690B64AEB903690A4604460D46014607
:1017C00002209847072805D008280FD1294620462F
:1017D000FFF72CFF3046296CFFF726FF281D00F08D
:1017E00031FB0122FFF740FF0FF012FF0FF010FF57
:1017F000C2681AB1CA6B0A64002235E79CE700BFD1
:10180000704700BF836801460BB10120184770473D
:10181000012912D009D873B90F2A0CD800EB820223
:1018200018465368009A136070470339012994BF22
:10183000012002207047022070470846704700BF11
:1018400010B584B0002303AC0A4600941946FFF794
:10185000DFFF039804B010BD012912D009D873B975
:101860000F2A0CD800EB8200009A126842601846DA
:1018700070470339012994BF0120022070470220DC
:1018800070470846704700BF10B584B0002303AC12
:10189000039200940A461946FFF7DEFF04B010BD1C
:1018A000F0B5D36B1364151D8C4606460FCDADF510
:1018B0000F7D17AC0FC40FCD0FC40FCD0FC495E82B
:1018C0000F004FF0FF3784E80F006546169710E0D1
:1018D000FFF7DAFF294616A8B047034616AA69465D
:1018E000082083B9049B9847052804460CD0092892
:1018F00009D026996846FFF715FE03466A460C2173
:1019000016A8002BE4D0092416A8FFF759FE20469C
:101910000DF50F7DF0BD00BF2DE9F04FCC6C89B007
:101920000D4654F8041B0694174600F003081E46A3
:10193000002B79D00B0CDAB209048DF81D3002238C
:1019400004EB820405918DF81C302B6DB8F1020F69
:1019500008BFAC6B13F001030CD0384605A900F0AA
:1019600073FB18B9082009B0BDE8F08F092009B051
:10197000BDE8F08FD4F800A0BAF1000FEDD00193CC
:1019800000F008030293022E4AD0B4F800A0B4F885
:1019900002900434AA6C29F0010B0F2138469344BD
:1019A000FFF74EFF834539D82AF001025A4482429C
:1019B00094BF002001204FEA490303F002030AF01C
:1019C000010A43EA0A03012B49D0022B32D0002B33
:1019D000CCD1B8F1000F02D0002840F0CD80043403
:1019E000D4F800A0BAF1000FCDD105A9384600F017
:1019F0002BFB0028BAD1019B002BB3D00F21384616
:101A0000FFF71EFF0E2102463846FFF73DFF38461E
:101A10006A4A0F21FFF738FF0720A8E70020CAE72E
:101A2000D4F804900834B5E7090203230591ADF812
:101A30001C308AE7236823F0004BB8F1000F45D132
:101A400028B1029A002A5CD0BBF1000F74D0002BA1
:101A500000DA04340BF1010B04EB8B04C0E7B8F19E
:101A6000000F19D1B0B1D4E90023991C4FEAD2720A
:101A70003FF47CAF05F158010133049100F09080F0
:101A8000201DFFF7C9FD04AB01462846AFF30080D7
:101A900000285BD10834A3E70D213846D5F8209003
:101AA000FFF7CEFE8145F5D1AB6A9C42F2D12046CC
:101AB000FFF7ECFC0F2102463846FFF7E5FE3846FB
:101AC0002A460021FFF7E0FE072050E70D213846A7
:101AD000D5F82090FFF7B4FE814501D02368B6E722
:101AE000AB6A9C42FAD104220021C5E90B12A3186B
:101AF000C5F828B06B6323688B4259DB012301933F
:101B0000A8E705F15803CDF80C8004F1040AB046AB
:101B100091461E460DE00496FFF77EFD04AB01469C
:101B200000222846AFF3008009F101090AF1040AF6
:101B3000E8B9D9455046EED138460D21FFF780FE71
:101B4000049B2862C5E90934062010E781460D216F
:101B50003846FFF775FEB9F1020F286225D12B46F2
:101B6000049A43F82C2F6B62AC620620FFE64646CF
:101B70002368DDF80C806AE72046FFF787FC043411
:101B80000246AC6328461446AFF3008000283FF4B9
:101B9000EDAE384622460F21FFF776FE0720E6E637
:101BA00038460D21FFF74CFE2862049B6B62DBE791
:101BB0000BF1010004EB80007AE700BF0000000099
:101BC0000023A9E60123A7E60223A5E62DE9F043B9
:101BD0000646C3B015461C46042900F2B980DFE86A
:101BE00001F09A53B7290300002C40F0B180102A6D
:101BF00000F2AE800368D80600F1F38020AF3846CB
:101C000000F092F9B06B0023012404FA03F22A4297
:101C1000014604D051F8042B47F82320084601332D
:101C2000042BF2D1B063384600F074F9002043B0C1
:101C3000BDE8F083032C40F08B8094B204EB124398
:101C4000102B4FEA124500F2838003681F0700F152
:101C5000D08020AF384600F03BF907EBC501B56BEB
:101C600054B10B46E81A01EBC401E4001A5843F8DA
:101C7000042B8B42FAD125443846B56300F006F9AF
:101C8000002043B0BDE8F083012C4FEA124895B222
:101C90005AD0052C5CD108EB0509B9F1200F57D8B3
:101CA000B8F10F0F77D9A946002D40F08880B36BAB
:101CB0006DB320AF4FF0000907EBC807043F03EBFB
:101CC000C50553F8041B47F8041FAB42F9D1B9F11D
:101CD000000F0FD06F464146102938BF102107EB87
:101CE000C101843903EBC90553F8040B41F8040F13
:101CF000AB42F9D1012C00F08480B8F10F0FB5632D
:101D000045D9B9F1000F02D0684600F0B7F80020BD
:101D100043B0BDE8F083DCB9876B2346012094B261
:101D200006F1040C00FA03F22242394604D051F8BD
:101D3000042B4CF823200F460133102BF2D115F45D
:101D40000050E4D1B76304E008EB0503102B03D97E
:101D5000022043B0BDE8F083B8F10F0FF8D8336824
:101D6000DA0706D5304623F0030340F8483B00F07D
:101D700079F820AF384600F075F8B36B002D99D193
:101D80001D460435B563384600F068F8BFE720A863
:101D900000F06CF8B5E7B9F1100F40D9A9F11009BE
:101DA0003368D90708D523F00103304643F0020316
:101DB00040F8483B00F05EF8B9F1000F32D03368CC
:101DC0005A0720D4B8F10F0F25D96F463846C8F10D
:101DD000100500F057F8002DB36B7FF77CAF20AFF4
:101DE0006AE723F01003336006F5E87000F09CF812
:101DF00004E723F00803036000F5A87000F068F81A
:101E000027E720AFBDE7304623F0040340F8D03B7E
:101E100000F038F8D6E720A800F02CF8D5E74FF00E
:101E20000009BDE7B8F10F0F3FF641AF20AF3846CC
:101E300000F020F8B36B002D7FF43CAF384600F083
:101E400015F864E700F1340191E838009C46A64695
:101E50004CF8045D90E8FF0FE54600BD90EC210BC7
:101E6000704700BF80EC210B704700BF90EC200B47
:101E7000704700BF80EC200B704700BFD0EC200BF8
:101E8000704700BFC0EC200B704700BFF0EC0201B0
:101E9000F0EC0211F0EC0221F0EC0231F0EC024126
:101EA000F0EC0251F0EC0261F0EC0271F0EC028116
:101EB000F0EC0291F0EC02A1F0EC02B1F0EC02C106
:101EC000F0EC02D1F0EC02E1F0EC02F1704700BF5F
:101ED000E0EC0201E0EC0211E0EC0221E0EC023166
:101EE000E0EC0241E0EC0251E0EC0261E0EC027156
:101EF000E0EC0281E0EC0291E0EC02A1E0EC02B146
:101F0000E0EC02C1E0EC02D1E0EC02E1E0EC02F135
:101F1000704700BFB0FC0181B0FC0191B0FC01A191
:101F2000B0FC01B1704700BFA0FC0181A0FC019191
:101F3000A0FC01A1A0FC01B1704700BFEC4600B5B8
:101F40002DE900502DE9FF1F4FF000032DE90C0093
:101F500001A9FFF7F1FBDDF840E012B0704700BFC8
:101F6000EC4600B52DE900502DE9FF1F4FF00003AE
:101F70002DE90C0001A9FFF719FCDDF840E012B0D3
:101F8000704700BFEC4600B52DE900502DE9FF1F5A
:101F90004FF000032DE90C0001A9FFF729FCDDF843
:101FA00040E012B0704700BFEC4600B52DE900508C
:101FB0002DE9FF1F4FF000032DE90C0001ABFFF7E7
:101FC000EBFBDDF840E012B0704700BFEC4600B517
:101FD0002DE900502DE9FF1F4FF000032DE90C0003
:101FE00001AAFFF75DFCDDF840E012B0704700BFCA
:101FF000027A7AB9437AA3B14268013B10B44372C2
:1020000013680321141D01721A024460026010BC9F
:10201000180E70470368013A02721A020260180E25
:102020007047B020704700BF00B585B003AA0023F9
:10203000009219460C22FFF7EBFB039805B05DF800
:1020400004FB00BFF0E700BF2DE9F043054685B073
:102050000E464FF000083046FFF7CAFFB02804468E
:1020600000F0B280070620D500F0F003802B4DD0A1
:10207000902B36D0A02B60D0B02B74D0C02B00F0AA
:102080008B8000F0F803D02B0BD100F00702013257
:1020900042F40022052301212846FFF797FD00287E
:1020A000D9D0092005B0BDE8F0830DF10C0900235B
:1020B00019468700CDF800900D222846FFF7A8FBAF
:1020C000FFB2039BCDF80090043760064CBFDF1BC6
:1020D000FF18002319460D2228460397FFF7BCFB83
:1020E000B9E700F00D030D2BDBD003AF002300F0A8
:1020F0000F02194600972846FFF78AFB0023009736
:1021000019460D222846FFF7A7FBA4E73046FFF744
:102110006FFF24022043B0F5004FC2D0040100231A
:10212000A2B219462846FFF751FD0028B9D114F490
:10213000004F18BF4FF001088DE7C24302F00703BC
:102140004FF47F621A41010702F47F624FF00003EF
:1021500048BF42F4804219462846FFF737FD002861
:102160003FF479AF9DE7B12833D0B22800F08B80DF
:10217000B32839D000F0FC03B42B92D000F0070252
:102180000132012342F4002219462846FFF71EFDC2
:1021900000283FF460AF84E7C62842D0C7284CD05F
:1021A00000F0F803C02B5BD0C82860D0C9287FF4AA
:1021B00078AF3046FFF71CFF020300F00F0002F477
:1021C00070220130024365E7B8F1000F18D00020FB
:1021D00068E73046FFF70CFF024600283FF461AF86
:1021E00010F0F003D0D05CE73046FFF701FF0103A9
:1021F00000F00F0001F47021421C01230A43C3E7E1
:1022000003AC43460E22414600942846FFF700FBEC
:102210000094284643460F224146FFF71DFB4046E7
:1022200040E73046FFF7E4FE010300F00F0001F441
:102230007021421C03230A43A6E73046FFF7D8FE6D
:10224000024600283FF42DAF10F0F0037FF429AFD1
:1022500004212846FFF7BAFC00283FF4FCAE20E733
:1022600000F00F020132032342F420228CE73046B3
:10227000FFF7BEFE00F0F00200F00F031032013352
:1022800043EA023206E700230DF10C090D2219463C
:10229000CDF800902846FFF7BBFA3046FFF7A8FEBE
:1022A00002064FF002070CD5039B00F07F00B840F8
:1022B000034430460393FFF79BFE030607F107072D
:1022C000F2D4039BCDF8009000F07F0403F5017277
:1022D000BC400023144419460D2228460394FFF7FE
:1022E000BBFAB8E610B5C26C84B0536803248DF80D
:1022F0000C401B0202F108040846D279019301A99F
:1023000002948DF80D20FFF79FFE04B010BD00BFB2
:1023100008B5FFF797FE806C08BD00BF08B5FFF752
:1023200091FEC06CC379023300EB830008BD00BF8F
:10233000704700BF10F8012B11F8013B012A28BF9C
:102340009A42F7D0D01A704780B483B000AF78605B
:102350000B46FB7013463B8000BF0C37BD4680BC6C
:10236000704780B483B000AF786000BF0C37BD46C3
:1023700080BC704780B483B000AF7860044A7B684B
:102380001A607B6818460C37BD4680BC704700BF9A
:102390000C1D010880B582B000AF78607B681846DC
:1023A000B8231A4600210FF07BF97B681846FFF727
:1023B000E1FF044A7B681A607B6818460837BD460F
:1023C00080BD00BFAC20010880B582B000AF78604E
:1023D0007B681846B8231A4600210FF061F97B6824
:1023E0001846FFF7C7FF044A7B681A607B681846E7
:1023F0000837BD4680BD00BF9C20010880B582B073
:1024000000AF78607B6803F5B873184604F0E3FB0F
:102410007B68B833184604F0DEFB00BF0837BD46C2
:1024200080BD00000000000080B592B010AF786061
:102430007B6803F5B8704FF00002334BCDE90E23F3
:102440002FA3D3E90023CDE90C232DA3D3E9002347
:10245000CDE90A232AA3D3E90023CDE908234FF0CD
:1024600000024FF00003CDE906234FF000024FF0C9
:102470000003CDE904234FF00002244BCDE90223F1
:102480004FF00002224BCDE9002340F2052201214A
:1024900005F0ADFB7B6803F1B8004FF000021A4B6A
:1024A000CDE90E2316A3D3E90023CDE90C2314A311
:1024B000D3E90023CDE90A2311A3D3E90023CDE911
:1024C00008234FF000024FF00003CDE906234FF040
:1024D00000024FF00003CDE904234FF000020B4B44
:1024E000CDE902234FF00002094BCDE9002340F271
:1024F0000622012105F07BFB00BF0837BD4680BDE9
:10250000000000000088D3400000D04000003440AC
:102510000000F03F80B582B000AF78600B467B8052
:10252000B7F902301846FDF7B5FF02460B46796849
:10253000C1E95E2300BF0837BD4680BD80B582B0CB
:1025400000AF78600B467B80B7F902301846FDF784
:10255000A1FF02460B467968C1E9302300BF083766
:10256000BD4680BD80B582B000AF78607B681846FC
:10257000FFF72AFF7B68B8331846FFF70BFF7B682D
:1025800003F5B8731846FFF705FF7B681846083750
:10259000BD4680BD80B582B000AF786039607B6891
:1025A000012B07D13B684FF6FF72934202D10348DB
:1025B000FFF7D8FF00BF0837BD4680BDF000002000
:1025C00080B500AF4FF6FF710120FFF7E3FF80BD3C
:1025D00080B483B000AF78607B68603318460C37F6
:1025E000BD4680BC7047000080B582B000AF786007
:1025F000154B1B78012B01D1144B20E0144B93F8A1
:102600003D301946124BB3F847309BB2A3F10A0292
:1026100013469B0013445B000B44282B0EDC0C4B31
:10262000B3F847309BB2A3F10A0213469B00134450
:102630005B001846FEF73CFB034600E0034B1846E0
:102640000837BD4680BD00BF5C000020000020426E
:10265000FC0B002080B586B000AF786039607B68E5
:102660003A689A6339683B4BA3FB0123DA081346A7
:102670009B0013445B00CA1AD2B27B6883F83E20E9
:102680003A68354BA3FB02135B09642101FB03F39A
:10269000D31A304AA2FB0323DB08DAB27B6883F843
:1026A0003D203B682C4AA2FB03235B09DAB27B681E
:1026B00083F83C2000237B617B69072B12DC7B685D
:1026C00093F83C30254ADB001A447B69134419789F
:1026D0007A687B6913443F330A461A707B69013379
:1026E0007B61E9E700233B613B69072B12DC7B68D8
:1026F00093F83D30194ADB001A443B6913441978BA
:102700007A683B69134447330A461A703B690133C0
:102710003B61E9E70023FB60FB68072B12DC7B6869
:1027200093F83E300D4ADB001A44FB6813441978D5
:102730007A68FB6813444F330A461A70FB6801330A
:10274000FB60E9E7786800F021F800BF1837BD4664
:1027500080BD00BFCDCCCCCC1F85EB51241D010822
:1027600080B582B000AF78600B46FB707B689A6BD7
:10277000FB781A447B689A637B689B6B1946786880
:10278000FFF768FF00BF0837BD4680BD80B483B047
:1027900000AF78607B68012283F8302000BF0C37DF
:1027A000BD4680BC704780B582B000AF78607B6862
:1027B00093F83030002B57D07B6893F83230022BDF
:1027C00028D0022B36DC002B02D0012B1AD031E0AE
:1027D0007B6893F83130DB08DBB21A467B6893F8EC
:1027E000313003F007037968D2000A4413443F33C1
:1027F0001B781946786800F03BF87B68012283F863
:10280000322018E0786800F078F87B68022283F8BC
:10281000322010E0786800F081F87B68002283F8AD
:1028200032207B6893F831300133DAB27B6883F869
:10283000312000E000BF7B6893F83130172B02D1C4
:10284000786800F038F87B6893F83130182B0CD199
:102850007B68002283F830207B68002283F83120D7
:10286000786800F039F800E000BF0837BD4680BD49
:1028700080B582B000AF78600B46FB70FB78002B10
:1028800009D17B6818687B685B689BB20022194697
:1028900008F01CFD0BE0FB78012B08D17B68186861
:1028A0007B685B689BB20122194608F00FFD00BFF0
:1028B0000837BD4680BD80B582B000AF78607B68C8
:1028C00098697B68DB699BB20122194608F0FEFC1F
:1028D00000BF0837BD4680BD80B582B000AF7860CC
:1028E0007B6898697B68DB699BB20022194608F017
:1028F000EDFC00BF0837BD4680BD80B582B000AF9B
:1029000078607B68586A7B689B6A9BB20122194693
:1029100008F0DCFC00BF0837BD4680BD80B582B042
:1029200000AF78607B68586A7B689B6A9BB2002224
:10293000194608F0CBFC00BF0837BD4680BD90B5F6
:1029400083B000AF786001231C4679687868FEF791
:10295000C9FB0346002B01D100231C46E3B2002B28
:1029600014BF01230023DBB218460C37BD4690BDCF
:1029700080B584B000AF78607B685B78002B00F096
:1029800085807B689B78132B66D17B681B78652BD1
:1029900062D17B680022DA700123FB60FB68112B97
:1029A0000EDC7B68DA787968FB680B4404331B78AB
:1029B0001344DAB27B68DA70FB680133FB60EDE741
:1029C0007B68DA787B689B7D9A423ED17B681422D3
:1029D0001A767B68002283F82D207B685B8B01339D
:1029E0009AB27B685A837B68043301331A687B6828
:1029F000DA617B68043305331A687B681A627B6886
:102A0000043309331A687B685A627B6804330D33D8
:102A10001A687B689A627B68DB691846FFF78FFF4C
:102A20000346002B07D17B681B6A1846FFF787FF18
:102A30000346002B01D0012300E00023002B3AD1F4
:102A40007B685A7D7B6883F82C207B6800229A7013
:102A50007B6800225A7031E07B689B78142B06D982
:102A60007B6800229A707B6800225A7026E07B689F
:102A70009B7819467B681A787B680B441A717B68CF
:102A80009B780133DAB27B689A7017E07B681B7819
:102A9000732B12D17B6801225A707B6800229A70D6
:102AA0007B681A787B681A717B689B780133DAB28D
:102AB0007B689A7002E000BF00E000BF7B680122E3
:102AC000194609480AF0D4FA0346002B14BF012323
:102AD0000023DBB2002B03D0412104480BF08AFE17
:102AE00000BF1037BD4680BDA8150020081801089A
:102AF00080B483B000AF78607B68383300221A60FE
:102B00005A609A60DA607B68483300221A605A6023
:102B10009A60DA607B68583300221A605A607B68DA
:102B2000002283F82E207B68002283F870207B68C7
:102B3000002283F82F207B68002283F830207B68F6
:102B4000012283F871207B684FF07E525A677968C2
:102B50004FF00002074BC1E9142379684FF00002DF
:102B6000054BC1E912237B6818460C37BD4680BC73
:102B7000704700BF0000F0BF0000E0BF80B582B02A
:102B800000AF786039607B68012B07D13B684FF656
:102B9000FF72934202D10348FFF7AAFF00BF083734
:102BA000BD4680BDF004002080B500AF4FF6FF7138
:102BB0000120FFF7E3FF80BD80B485B000AFF8606F
:102BC000084611461A4603467B810B463B81134655
:102BD000FB80FB687A89A3F89620FB683A89A3F802
:102BE0009820FB68FA88A3F89A2000BF1437BD46E6
:102BF00080BC704780B483B000AF78607B68B3F965
:102C0000943018460C37BD4680BC704780B483B002
:102C100000AF786039607B683A68C3F8CC2100BFA8
:102C20000C37BD4680BC704780B483B000AF78607D
:102C300039607B683A68C3F8CC2100BF0C37BD46C9
:102C400080BC704780B483B000AF786039607B6827
:102C50003A68C3F8CC2100BF0C37BD4680BC704732
:102C600080B483B000AF78600B46FB707B68FA7865
:102C700083F8C92100BF0C37BD4680BC70470000F7
:102C800090B583B000AF78607B689B68614A9342DF
:102C900003D1614B00221A7002E05F4B01221A70CF
:102CA0007B681B79002B02D17B6801221A715A4B79
:102CB0001B781A467B68DB68A3F201235749D200D0
:102CC000134451F823007B6893F820301B021AB29A
:102CD0007B6893F821301BB2134319B27B6893F8D9
:102CE00022301B021AB27B6893F823301BB21343C5
:102CF0001CB27B6893F824301B021AB27B6893F8ED
:102D000025301BB213431BB22246FFF755FF424B3F
:102D10001B781A467B68DB68A3F201233F49D20087
:102D2000134451F8233001221A717B68DB68B3F534
:102D3000407F6BD07B68DB6840F20132934265D103
:102D40007B6893F820301846FDF7A4FB4FF0000293
:102D5000334BFDF733FD02460B4610461946FDF78F
:102D60009DFE034619462F48FFF75EFF7B6893F8E8
:102D700021301846FDF78EFB4FF00002284BFDF77F
:102D80001DFD02460B4610461946FDF787FE034619
:102D900019462448FFF73AFF7B6893F8223018461B
:102DA000FDF778FB4FF000021D4BFDF707FD0246D3
:102DB0000B4610461946FDF771FE034619461948A1
:102DC000FFF740FF7B6893F82330FF2B0AD0FF2BDF
:102DD0001CDC032B15D0032B18DC012B07D0022B96
:102DE0000AD013E001210F48FFF73AFF0EE002215D
:102DF0000C48FFF735FF09E003210A48FFF730FFD1
:102E000004E004210748FFF72BFF00BF00BF0C3789
:102E1000BD4690BD4411002068050020E80C00204C
:102E2000000014401803002080B584B000AF786023
:102E30000B46FB707B689B685B4A93420CBF012387
:102E40000023DBB2FB727B689B687A6830321A63BE
:102E5000FB78002B04D17B684FF400721A6303E007
:102E60007B6840F2FF121A637B6800225A637B681A
:102E700000229A637B680022DA637B6808221A6466
:102E80000023FB60FB68032B4EDCFA7AFB78990089
:102E9000FB680B444549D200134451F82330002B02
:102EA0000FD1FB685B007A681344002283F844204A
:102EB000FB685B0001337A681344002283F84420E6
:102EC0002EE0FA7AFB789900FB680B443749D20070
:102ED000134451F823301846FFF78CFE03461A12AC
:102EE000FB685B00D1B27A6813440A4683F8442039
:102EF000FA7AFB789900FB680B442C49D200134402
:102F000051F823301846FFF775FE03461A46FB6852
:102F10005B000133D1B27A6813440A4683F8442037
:102F2000FB680133FB60ADE77B685B79012B37D130
:102F3000142007F00EFB402007F00BFB252007F0C4
:102F400008FB3A2007F005FB362007F002FB37208C
:102F500007F0FFFA7B689B68184606F01FFC0346E3
:102F6000002B14BF01230023DBB2002B03D07621FA
:102F70000F480BF03FFC7B6800225A71142007F0C9
:102F8000DAFA402007F0D7FA252007F0D4FA3A20E1
:102F900007F0D1FA372007F0CEFA362007F0CBFA47
:102FA00000BF1037BD4680BD88110020E80C00200E
:102FB0008C18010880B582B000AF78607B689B6890
:102FC0007A6830321A637B684FF440721A637B6808
:102FD00000225A637B6800229A637B680022DA63CE
:102FE0007B6808221A644A48FFF7F2FA034693F90D
:102FF00000300133042B26D801A252F823F000BF81
:10300000153000081F300008293000083330000850
:103010003D3000087B68FF2283F8442013E07B6882
:10302000002283F844200EE07B68012283F84420CC
:1030300009E07B68022283F8442004E07B680322D5
:1030400083F8442000BF3348FFF7CEFA0346184602
:10305000FEF784F80346DAB27B6883F845207B6884
:10306000002283F846207B68002283F847207B6893
:10307000002283F848207B68002283F849207B687F
:10308000002283F84A207B68002283F84B207B686B
:103090005B79012B37D1142007F05BFA402007F051
:1030A00058FA252007F055FA3A2007F052FA362050
:1030B00007F04FFA372007F04CFA7B689B681846F8
:1030C00006F06CFB0346002B14BF01230023DBB288
:1030D000002B03D0C42110480BF08CFB7B6800222E
:1030E0005A71142007F027FA402007F024FA25200F
:1030F00007F021FA3A2007F01EFA372007F01BFAF2
:10310000362007F018FA00BF0837BD4680BD00BF63
:10311000300D0020180300208C18010880B58CB0F9
:1031200000AF7860084611461A460346FB700B460E
:10313000BB7013467B707B680022DA707B68BA78BC
:103140001A707B687A785A707B6897F838209A7082
:103150007B6801225A71FB78012B03D17B68234ADB
:103160009A6002E07B68224A9A607B689B687A6872
:103170000C325A63FB78012B02D10023FB6101E082
:103180000E23FB6100233B6201237B620023BB60B3
:103190000023FB6000233B6100237B610023BB61B4
:1031A0000123BB620E23FB627B689B6807F1080268
:1031B0001146184606F026FA7B689B6800211846DF
:1031C00006F02AFC0346002B14BF01230023DBB2C8
:1031D000002B03D0F12107480BF00CFB7B68002289
:1031E0001A7100BF3037BD4680BD00BF44110020BA
:1031F000881100208C18010880B584B000AF786079
:103200000023FB737B68DB785A1C284B83FB02315D
:10321000D317C91A0B465B000B44D11ACAB27B689C
:10322000DA70FB7B0133FB737B68DB781A467B68C3
:103230009B5C002B03D1FB7B032B00D8E2E77B6870
:10324000DB78022B1ED0022B2CDC002B02D0012BB2
:103250000CD027E07B68DB781A467B689B5C002BF0
:103260001BD000217868FFF7DFFD16E07B68DB7874
:103270001A467B689B5C002B11D001217868FFF710
:10328000D3FD0CE07B68DB781A467B689B5C002BE7
:1032900007D07868FFF78EFE03E000BF02E000BFB2
:1032A00000E000BF00BF1037BD4680BD56555555E4
:1032B00080B483B000AF78607B681B7E002B05D0A4
:1032C0007B681B7E013BDAB27B681A7600BF0C3745
:1032D000BD4680BC7047000080B582B000AF78600A
:1032E0007B6812221946094809F0C2FE0346002BEA
:1032F00014BF01230023DBB2002B03D0C2210448FA
:103300000BF078FA00BF0837BD4680BDE8140020F6
:103310000C19010880B483B000AF78607B68483333
:1033200018460C37BD4680BC704780B582B000AFF0
:103330007860786801F0A2FA786801F0FFFB00BFBE
:103340000837BD4680BD80B582B000AF78607B682D
:10335000184601F061F9786801F000FD786802F024
:1033600077FA00BF0837BD4680BD000080B500AFCA
:10337000024800F077F800BF80BD00BF04060020BF
:1033800080B500AF0E48FFF723F9034693F90030EC
:10339000002BCCBF01230023DBB2002B05D0094852
:1033A00000F031F90848FFF729F80848FFF724FF33
:1033B0000748FFF721FF0748FFF7C5FF00BF80BDA3
:1033C000300D002008060020F00000206C050020D1
:1033D000B8050020280B002080B500AF1948FFF782
:1033E00099FF03461B78032B16D0032B28DC012BF7
:1033F00001D0022B24E01348FFF7EAF8034693F9C3
:103400000030002BCCBF01230023DBB2002B14D0F3
:103410000C4803F08BFB10E00A48FFF7D9F803468D
:1034200093F90030002BCCBF01230023DBB2002B2B
:1034300005D0044803F064FB01E000BF00E000BFDA
:1034400000BF80BD300D002080B500AF034805F0FF
:1034500023FB0348FFF72CFF00BF80BDA00D002019
:10346000F004002080B584B002AF786004F0D8FA90
:103470000F4800F0EDF80023009301230122022100
:103480000C48FFF74BFE002300930123012201218A
:103490000948FFF743FE0948FFF71EFF0848FFF7FA
:1034A00044FF0848FEF7C0FF00BF0837BD4680BD97
:1034B00008060020B80500206C050020300D002013
:1034C000280B0020F000002080B483B000AF7860AB
:1034D0007B6823F0004318460C37BD4680BC70471C
:1034E00080B582B000AF786078680CF0CFFD0346FD
:1034F00018460837BD4680BD80B582B000AF786001
:1035000078680CF0FFFD034618460837BD4680BDBD
:1035100080B582B000AF78607B68184604F0B3FCD9
:1035200000BF0837BD4680BD80B590B00CAFF860D5
:10353000C7E90023F968D7E91023CDE90A23D7E9C1
:103540000E23CDE90823D7E90C23CDE90623D7E9DB
:103550000A23CDE90423D7E90823CDE90223D7E9DB
:103560000623CDE90023D7E90023084604F0BCFD7B
:1035700000BF1037BD4680BD80B483B000AF786017
:1035800039607A683B689633196811609B8893802C
:1035900078680C37BD4680BC7047B0B483B000AFCC
:1035A000786039607A683B68154603F110040FCCE7
:1035B0000FC50FCC0FC50FCC0FC594E80F0085E8E1
:1035C0000F0078680C37BD46B0BC704780B584B03A
:1035D00000AFF860B9601346FB71FB79002B06D190
:1035E000BA68FB6811461846FFF7C6FF07E0BB68DC
:1035F00003F1D002FB6811461846FFF7BDFFF868DB
:103600001037BD4680BD80B582B000AF7860786865
:1036100000F06AFB786800F037F97B68184603F021
:10362000DAFA7B68B833184603F0D5FA7B6803F5FD
:10363000B873184603F0CFFA7B6803F50A7318468F
:1036400003F0C9FA00BF0837BD4680BD0000000086
:1036500080B592B010AF78607B68002283F8E122D9
:103660007B6840F2F732A3F83223002300220021C6
:10367000786800F02BFC78684FF000027E4BCDE9B3
:103680000E2377A3D3E90023CDE90C2374A3D3E958
:103690000023CDE90A2372A3D3E90023CDE908234F
:1036A0004FF000024FF00003CDE906234FF0000277
:1036B0004FF00003CDE904234FF000026F4BCDE93A
:1036C00002234FF000026E4BCDE9002340F20222AC
:1036D000012104F08CFA7B6803F1B8004FF000027E
:1036E000654BCDE90E235EA3D3E90023CDE90C237E
:1036F0005BA3D3E90023CDE90A2359A3D3E900232F
:10370000CDE908234FF000024FF00003CDE9062376
:103710004FF000024FF00003CDE904234FF0000208
:10372000564BCDE902234FF00002554BCDE9002363
:1037300040F20122012104F05AFA7B6803F5B870C7
:103740004FF000024C4BCDE90E2345A3D3E90023F3
:10375000CDE90C2342A3D3E90023CDE90A2340A3FA
:10376000D3E90023CDE908234FF000024FF0000316
:10377000CDE906234FF000024FF00003CDE904230A
:103780004FF000023D4BCDE902234FF000023C4BCD
:10379000CDE9002340F20322012104F028FA7B68DE
:1037A00003F50A704FF00002334BCDE90E232CA332
:1037B000D3E90023CDE90C2329A3D3E90023CDE9E4
:1037C0000A2327A3D3E90023CDE908234FF0000201
:1037D0004FF00003CDE906234FF000024FF0000345
:1037E000CDE904234FF00002244BCDE902234FF032
:1037F0000002234BCDE900234FF40172012104F0B4
:10380000F6F97B6803F53C7117A3D3E90023CDE9F2
:103810000A2317A3D3E90023CDE9082314A3D3E98E
:103820000023CDE9062312A3D3E90023CDE9042325
:103830004FF000024FF00003CDE902234FF00002E9
:103840004FF00003CDE900234FF000020C4B084677
:10385000FFF76AFE00BF0837BD4680BDAFF30080AA
:10386000000000000088D340000000000070974076
:10387000000000000070A7400000D040000014408D
:103880000000F03F000000002DE9B04FACB000AFE9
:103890007860796886A3D3E90023C1E9D0237968E9
:1038A0004FF000024FF00003C1E9D22379684FF0D6
:1038B00000024FF00003C1E9D4237A6807F108033E
:1038C00011461846FFF758FEB7F90A301846FCF7BC
:1038D000E1FD02460B467968C1E9D6237B6803F116
:1038E000B80207F1100311461846FFF745FEB7F975
:1038F00012301846FCF7CEFD02460B467968C1E946
:10390000D8237B6803F5B87207F1180311461846EF
:10391000FFF732FEB7F91A301846FCF7BBFD024636
:103920000B467968C1E9DA237B6803F50A7207F16F
:10393000200311461846FFF71FFEB7F9223018463C
:10394000FCF7A8FD02460B467968C1E9DC237A68DA
:1039500007F1280311461846FFF71FFEFB6B1846B8
:10396000FCF7AAFD04460D467B68D3E902017B689B
:10397000D3E9D623FCF740FC02460B461046194615
:103980007B68D3E9D623FCF7EFFD02460B46904651
:1039900099467B68D3E930017B68D3E9D823FCF7EB
:1039A0002BFC02460B46104619467B68D3E9D82308
:1039B000FCF7DAFD02460B4640464946FCF71EFC82
:1039C00002460B46904699467B68D3E95E017B68C8
:1039D000D3E9DA23FCF710FC02460B4610461946E1
:1039E0007B68D3E9DA23FCF7BFFD02460B4640466D
:1039F0004946FCF703FC02460B46904699467B6815
:103A0000D3E98C017B68D3E9DC23FCF7F5FB0246A4
:103A10000B46104619467B68D3E9DC23FCF7A4FD6E
:103A200002460B4640464946FCF7E8FB02460B4679
:103A300020462946FCF798FD02460B4610461946DB
:103A40007B68D3E9D023FCF7B9FE02460B46C7E9F1
:103A50002A231B4B93F83D30002B17D0184B93F8BB
:103A60003D301946164BB3F847309BB2A3F10A021A
:103A700013469B0013445B000B441846FCF70AFDF9
:103A800002460B467968C1E9D22305E079680AA3AA
:103A9000D3E90023C1E9D2237B68D3E9D223D7E954
:103AA0002A01FCF7F1FF0346002B0BD1D9E000BF40
:103AB00000000000006A0841000000000088B340D8
:103AC000FC0B00207B68D3E9D223D7E92A01FCF75D
:103AD00093FB02460B46904699467A6807F16803C5
:103AE00011461846FFF759FDFB6F1846FCF7E4FC3A
:103AF00004460D467B68D3E902017B68D3E9D623EF
:103B0000FCF732FD02460B4692469B467B68D3E9A2
:103B100030017B68D3E9D823FCF726FD02460B462B
:103B200050465946FCF76AFB02460B4692469B46B6
:103B30007B68D3E95E017B68D3E9DA23FCF714FDE7
:103B400002460B4650465946FCF758FB02460B46C8
:103B500092469B467B68D3E98C017B68D3E9DC23E2
:103B6000FCF702FD02460B4650465946FCF746FB61
:103B700002460B4620462946FCF7F6FC02460B4659
:103B800040464946FCF71AFE02460B4610461946C7
:103B90007B68D3E9D023FCF7E7FC02460B464FF0E5
:103BA00000003249FCF728FB02460B467968C1E960
:103BB000D4237B68D3E9D4014FF000022B4BFCF7F0
:103BC00063FF0346002B05D079684FF00002274BB6
:103BD000C1E9D4237B68D3E9D4014FF000024FF050
:103BE0000003FCF733FF0346002B06D079684FF043
:103BF00000024FF00003C1E9D4237B68D3E902013E
:103C00007B68D3E9D423FCF7AFFC02460B46796806
:103C1000C1E902237B68D3E930017B68D3E9D4236F
:103C2000FCF7A2FC02460B467968C1E930237B68A9
:103C3000D3E95E017B68D3E9D423FCF795FC024607
:103C40000B467968C1E95E237B68D3E98C017B6808
:103C5000D3E9D423FCF788FC02460B467968C1E916
:103C60008C2300BFB037BD46BDE8B08F0000F03FE9
:103C700090B583B000AF78607B68D3F8EC3218461B
:103C8000FFF722FC03460122144616491846FDF7A9
:103C900001FA0346002B01D100231C46E3B2002B9E
:103CA00004D07B684FF00002C3F814237B68D3F87C
:103CB000EC227B68C3F8F0227B684FF00002C3F867
:103CC000F4227B6803F53C731846FFF721FC7B6800
:103CD000D3F828237B68C3F8EC2200BF0C37BD461D
:103CE00090BD00BF0000704190B589B000AF786012
:103CF0007B6893F8E132002B40F0C1807868FFF7D1
:103D0000B7FF07F10C0301226D491846FFF75EFC6F
:103D1000B7F90C30A3F2F7331846FCF7C9FF034696
:103D200068491846FDF718F803464FF08C411846CD
:103D3000FDF7C6F80346FB61F869FFF7D1FB0446BF
:103D4000F869FFF7D9FB034619462046FCF7FCFE4D
:103D50000346BB61F869FFF7C3FB0446F869FFF748
:103D6000CBFB034619462046FCF7ECFE03467B617D
:103D70007B68D3F8E4227B68D3F8E8321946104612
:103D8000FCF7E2FE03461A467B68D3F8EC3219468C
:103D90001046FCF7D9FE03464B491846FCF7DCFFFA
:103DA00003461846FCF788FB02460B467968C1E9D2
:103DB00002237B68D3F8E8227B68D3F8E432194603
:103DC0001046FCF7BFFE03461A467B68D3F8EC3278
:103DD00019461046FCF7B8FE03463B491846FCF767
:103DE000BBFF03461846FCF767FB02460B467968A3
:103DF000C1E930237B68D3F8E4227B68D3F8E8324A
:103E000019461046FCF79EFE03461A467B68D3F817
:103E1000EC3219461046FCF797FE03462A4918462D
:103E2000FCF79AFF03461846FCF746FB02460B4692
:103E30007968C1E95E237B68D3F8E43283F00042FD
:103E40007B68D3F8E83219461046FCF77BFE034640
:103E50001A467B68D3F8EC3219461046FCF774FE1C
:103E6000034619491846FCF777FF03461846FCF746
:103E700023FB02460B467968C1E98C231BE0796875
:103E80004FF000024FF00003C1E9022379684FF0C0
:103E900000024FF00003C1E9302379684FF00002BF
:103EA0004FF00003C1E95E2379684FF000024FF044
:103EB0000003C1E98C2300BF2437BD4690BD00BF7D
:103EC00080090020C3F5C8400000404180B584B09F
:103ED00000AFF860084611461A4603467B810B4640
:103EE0003B811346FB80B7F90A301846FCF7E0FE29
:103EF00003461A491846FCF72FFF03461A46FB688B
:103F0000C3F8E422B7F908301846FCF7D1FE03469F
:103F100012491846FCF720FF034611491846FCF7E2
:103F2000CFFF034619461846FCF70EFE03461A4615
:103F3000FB68C3F8E822B7F906301846FCF7B8FE6C
:103F4000034608491846FCF707FF03461A46FB6874
:103F5000C3F8EC2200BF1037BD4680BD9A99593F87
:103F600000004040295C8F3D80B582B000AF786092
:103F70007B681846FEF70EFA7B68B8331846FEF7E2
:103F800009FA7B6803F5B8731846FEF703FA7B68F5
:103F900003F50A731846FEF7FDF97B6818460837E3
:103FA000BD4680BD80B582B000AF786039607B6867
:103FB000012B07D13B684FF6FF72934202D10348B1
:103FC000FFF7D2FF00BF0837BD4680BD08060020BE
:103FD00080B500AF4FF6FF710120FFF7E3FF80BD12
:103FE00080B582B000AF78607B681846FEF7C2F9F2
:103FF000034A7B681A607B6818460837BD4680BD57
:104000008C20010880B582B000AF78607B681846CC
:10401000FEF7B0F9034A7B681A607B6818460837D8
:10402000BD4680BD7C20010880B582B000AF7860BD
:104030007B681846FFF7D4FF7B68D0331846FFF73C
:10404000E1FF7B6818460837BD4680BD80B582B069
:1040500000AF786039607B68012B07D13B684FF671
:10406000FF72934202D10348FFF7DEFF00BF08371B
:10407000BD4680BD8009002080B500AF4FF6FF71BE
:104080000120FFF7E3FF80BD80B582B000AF78600C
:1040900078680CF075F8034618460837BD4680BDB1
:1040A00080B582B000AF78603960396878680CF00C
:1040B0008DF8034618460837BD4680BD80B582B0EE
:1040C00000AF786078680CF083F80346184608372C
:1040D000BD4680BD80B485B000AF78600023FB6032
:1040E000FB680D2B09DC7A68FB6813440233FF225E
:1040F0001A70FB680133FB60F2E77B6818461437DF
:10410000BD4680BC704780B5A6B000AF78607B68C4
:104110001846FFF7DFFF07F10C031846FFF7DAFF39
:104120007B684FF07E52C3F88C207B684FF0000212
:10413000C3F890207B684FF00002C3F894207B689E
:104140004FF00002C3F898207B6818469837BD46A8
:1041500080BD000080B586B000AF786039604FF058
:104160007C513868FCF7F8FD03467B613B683B6196
:1041700007F110031B68FB60FB685A10134B9B1A76
:10418000FB6007F10C031B683B613B6979691846CA
:10419000FCF7E2FD03461A463B6919461046FCF758
:1041A000DBFD034619464FF07F50FCF7CBFC03467E
:1041B0001A463B6919461046FCF7CEFD03463B61A3
:1041C0003B6918461837BD4680BD00BFDF59375FD1
:1041D00080B584B002AF78600B46FB701346BB70AD
:1041E00000224021134807F071F8FB7803F07F03A9
:1041F000DAB27B681A7079687B685A1C372300939F
:1042000001230D4807F014FD7B68BA781A707968AD
:104210007B685A1C372300930123074807F008FDE9
:1042200001224021034807F051F8002318460837BF
:10423000BD4680BD00140240F011002080B584B05E
:1042400002AF78600B46FB7000224021124807F055
:104250003DF8FB7863F07F03DAB27B681A70796807
:104260007B685A1C3723009301230C4807F0E0FCBD
:1042700079687B685A1C372300930123074807F0AD
:10428000D7FC01224021044807F020F87B685B78C6
:1042900018460837BD4680BD00140240F0110020CA
:1042A00080B586B002AFF8607A601A460B46FB72A2
:1042B0001346BB7200224021144807F007F8FB7A2E
:1042C00063F07F03DAB2FB681A70FB681A78FB6848
:1042D0009A70F968FB685A1C3723009301230C4835
:1042E00007F0A6FCFB68991CBB7A9BB237220092B0
:1042F0007A68074807F09CFC01224021034806F039
:10430000E5FF002318461037BD4680BD001402406B
:10431000F011002080B582B000AF78600B46FB70D2
:104320001346BB7000222A217868FFF751FF022054
:1043300004F05CFCFB781A4629217868FFF748FFF7
:10434000022004F053FCBB781A4664217868FFF71A
:104350003FFF022004F04AFC81222A217868FFF7FF
:1043600037FF0A2004F042FC00BF0837BD4680BD7D
:1043700080B584B000AF78600B46FB70FB781A46BE
:1043800032217868FFF724FF0A2004F02FFC8022F6
:1043900034217868FFF71CFF0A2004F027FC352140
:1043A0007868FFF74BFF0346FB73002234217868DF
:1043B000FFF70EFF0A2004F019FCFB7B18461037AC
:1043C000BD4680BD80B582B000AF7860084611461A
:1043D0001A460346FB700B46BB7013467B70FB7896
:1043E0001A4628217868FFF7F3FE022004F0FEFB4E
:1043F0000A2229217868FFF7EBFE022004F0F6FB81
:10440000012264217868FFF7E3FE022004F0EEFB4E
:10441000FB7863F07F03DBB21A4625217868FFF74B
:10442000D7FE022004F0E2FBBB781A46262178680A
:10443000FFF7CEFE022004F0D9FB03223421786876
:10444000FFF7C6FE022004F0D1FB03226721786843
:10445000FFF7BEFE022004F0C9FB81222A21786802
:10446000FFF7B6FE062004F0C1FB7B7863F07F0304
:10447000DBB21A4627217868FFF7AAFE022004F073
:10448000B5FB00BF0837BD4680BD80B582B000AF28
:10449000786030226A217868FFF79AFE0A2004F0DB
:1044A000A5FB0D2224217868FFF792FE0A2004F074
:1044B0009DFB0E2228217868FFF78AFE0A2004F06F
:1044C00095FB8E2231217868FFF782FE0A2004F0E6
:1044D0008DFB01220B217868FFF71CFF0A2004F0F6
:1044E00085FB00217868FFF743FF0346102B14BFBC
:1044F00001230023DBB2002B01D0012379E001224C
:104500000B217868FFF706FF0A2004F06FFB0022FA
:104510000A217868FFF7FEFE0A217868FFF728FF76
:104520000346002B14BF01230023DBB2002B01D074
:1045300002235EE00A2004F059FB00220B21786878
:10454000FFF7E8FE0B217868FFF712FF0346002B08
:1045500014BF01230023DBB2002B01D0032348E06A
:104560000A2004F043FB242241217868FFF7D2FEA1
:1045700041217868FFF7FCFE0346242B14BF01237A
:104580000023DBB2002B01D0042332E00A2004F028
:104590002DFBC02242217868FFF7BCFE42217868DB
:1045A000FFF7E6FE0346C02B14BF01230023DBB256
:1045B000002B01D005231CE00A2004F017FB002289
:1045C0002A217868FFF704FE0A2004F00FFB00227E
:1045D00034217868FFF7FCFD0A2004F007FB06236E
:1045E00003220E217868FFF7EDFE642004F0FEFA46
:1045F000002318460837BD4680BD80B582B000AFA5
:104600007860396006233A6849217868FFF748FEE8
:1046100000BF0837BD4680BD80B582B000AF78606E
:104620007B6803F120020E233B217868FFF738FEF8
:104630007B6893F820301B021AB27B6893F8213014
:104640001BB213431BB29AB27B68B3F942309BB2E0
:10465000D31A9BB21AB27B68DA857B6893F8223052
:104660001B021AB27B6893F823301BB213431BB2B0
:104670009AB27B68B3F944309BB2D31A9BB21AB298
:104680007B681A867B6893F824301B021AB27B6819
:1046900093F825301BB213431BB29AB27B68B3F96F
:1046A00046309BB2D31A9BB21AB27B685A867B689B
:1046B00093F826301B021AB27B6893F827301BB29E
:1046C00013431AB27B685A877B6893F828301B0221
:1046D0001AB27B6893F829301BB213431BB29AB20B
:1046E0007B68B3F948309BB2D31A9BB21AB27B688D
:1046F0009A877B6893F82A301B021AB27B6893F87A
:104700002B301BB213431BB29AB27B68B3F94A3009
:104710009BB2D31A9BB21AB27B68DA877B6893F894
:104720002C301B021AB27B6893F82D301BB2134356
:104730001BB29AB27B68B3F94C309BB2D31A9BB2CE
:104740001AB27B68A3F840207B681033194678685A
:10475000FFF753FF7B6803F134007B6810330622B8
:1047600019460CF08FFF7B6803F150007B682E33F5
:104770000C2219460CF086FF7B68B3F93A301846D4
:10478000FCF796FA034626491846FCF799FB0346C0
:1047900024491846FCF7D8F903461A467B68DA65BF
:1047A0007B68B3F93C301846FCF782FA03461E4991
:1047B0001846FCF785FB03461C491846FCF780FBAE
:1047C00003461A467B681A667B68B3F93E30184682
:1047D000FCF76EFA034614491846FCF771FB0346D2
:1047E00012491846FCF76CFB03461A467B685A666A
:1047F0007B68B3F940301846FCF75AFA03460A4979
:104800001846FCF75DFB034608491846FCF758FBC1
:1048100003461A467B689A6600BF0837BD4680BDCE
:104820005CEFA6430000A8416F1283413333654219
:1048300080B582B000AF78600B46FB70FB78DB0080
:10484000DBB21A461B217868FFF7C2FC0346184604
:104850000837BD4680BD80B582B000AF78600B469A
:10486000FB70FB78DB00DBB21A461C217868FFF78F
:10487000AFFC034618460837BD4680BD80B588B0FA
:1048800000AF78607B68012283F88420642004F004
:10489000ADF97B6875211846FFF7D0FC03461A4630
:1048A0007B6883F8CC200023FB7707F10803002204
:1048B0001A605A609A60DA601A6148F26B033B81B1
:1048C00040F26B337B816C23BB8140F21A43FB8146
:1048D00041F61B033B8241F21C037B8240F21D43E5
:1048E000BB8242F26A03FB820023FB77FB7F092B2A
:1048F00018D87868FB7F5B0007F12002134413F897
:10490000181CFB7F5B0007F12002134413F8173CCF
:104910001A46FFF75DFC012004F068F9FB7F0133C4
:10492000FB77E3E77B6803211846FFF781FF7B688D
:1049300002211846FFF78FFF7B681846FFF7A5FD99
:10494000786800F009F87B68012283F8882000234A
:1049500018462037BD4680BD80B584B000AF786072
:104960000023FB60FB68B3F5487F80F29380786892
:104970007B6803F120020E233B21FFF791FC7B684B
:10498000B3F942309AB27B6893F820301B0219B217
:104990007B6893F821301BB20B431BB29BB21344CC
:1049A0009BB21AB27B68A3F842207B68B3F944300B
:1049B0009AB27B6893F822301B0219B27B6893F895
:1049C00023301BB20B431BB29BB213449BB21AB2EF
:1049D0007B68A3F844207B68B3F946309AB27B68C1
:1049E00093F824301B0219B27B6893F825301BB270
:1049F0000B431BB29BB213449BB21AB27B68A3F861
:104A000046207B68B3F948309AB27B6893F8283027
:104A10001B0219B27B6893F829301BB20B431BB2FF
:104A20009BB213449BB21AB27B68A3F848207B6800
:104A3000B3F94A309AB27B6893F82A301B0219B254
:104A40007B6893F82B301BB20B431BB29BB2134411
:104A50009BB21AB27B68A3F84A207B68B3F94C304A
:104A60009AB27B6893F82C301B0219B27B6893F8DA
:104A70002D301BB20B431BB29BB213449BB21AB234
:104A80007B68A3F84C20022004F0B0F8FB680133E7
:104A9000FB6067E77B68B3F94230274A82FB031269
:104AA0001212DB17D31A1AB27B68A3F842207B6874
:104AB000B3F94430204A82FB03121212DB17D31AD7
:104AC0001AB27B68A3F844207B68B3F946301A4ACF
:104AD00082FB03121212DB17D31A1AB27B68A3F8F7
:104AE00046207B68B3F94830134A82FB0312121246
:104AF000DB17D31A1AB27B68A3F848207B68B3F996
:104B000048300D4A82FB03121212DB17D31A1AB275
:104B10007B68A3F84A207B68B3F94C30064A82FBD5
:104B200003121212DB17D31A1AB27B68A3F84C20B7
:104B300000BF1037BD4680BD1F85EB5180B485B0E6
:104B400000AF78607B68B3F85630FB817B68B3F8C0
:104B50005830BB81B7F90E30002B30DAB7F90C3082
:104B6000002B2CDAB7F90E20B7F90C3092FBF3F3D7
:104B7000002BB8BF5B42002B10DD7B68624AC3F894
:104B80008C207B68614AC3F890207B68604AC3F838
:104B900094207B685F4AC3F89820AFE07B685E4A48
:104BA000C3F88C207B685D4AC3F890207B685C4A20
:104BB000C3F894207B685B4AC3F898209EE0B7F95D
:104BC0000E30002B30DAB7F90C30002B2CDDB7F9A2
:104BD0000E20B7F90C3092FBF3F3002BB8BF5B4209
:104BE000002B10DD7B68504AC3F88C207B68474A55
:104BF000C3F890207B684D4AC3F894207B684C4AE8
:104C0000C3F898207AE07B68474AC3F88C207B6819
:104C1000484AC3F890207B68474AC3F894207B68D1
:104C2000464AC3F8982069E0B7F90E30002B30DD12
:104C3000B7F90C30002B2CDDB7F90E20B7F90C308A
:104C400092FBF3F3002BB8BF5B42002B10DD7B68B7
:104C50003B4AC3F88C207B68344AC3F890207B68B9
:104C60002A4AC3F894207B68274AC3F8982045E075
:104C70007B68344AC3F88C207B682F4AC3F89020A5
:104C80007B682C4AC3F894207B682E4AC3F898208E
:104C900034E0B7F90E30002B30DDB7F90C30002BC3
:104CA0002CDAB7F90E20B7F90C3092FBF3F3002B96
:104CB000B8BF5B42002B10DD7B68234AC3F88C2011
:104CC0007B68224AC3F890207B68104AC3F894207E
:104CD0007B681F4AC3F8982010E07B681A4AC3F823
:104CE0008C207B680E4AC3F890207B68194AC3F871
:104CF00094207B68184AC3F89820FFE700BF143758
:104D0000BD4680BC704700BF0AD7A3BBA8C64BBE38
:104D1000BE9F7A3F4ED111BC6F1203BC7B140EBFF5
:104D2000E17A543F6F1203BB0AD7A33B355E7ABFCB
:104D3000A69B443C68910DBFE17A54BF99BB16BB5A
:104D400052499D3A99BB163B0AD7233B355E7A3FC1
:104D50006F12033C295C0FBFBC74933BB0B5A0B08D
:104D600000AF78607B68D3F88C207B68D3F88C30F8
:104D700019461046FBF7F0FF0346FB677B68D3F844
:104D80008C207B68D3F8903019461046FBF7E4FF7F
:104D90000346BB677B68D3F88C207B68D3F89430DC
:104DA00019461046FBF7D8FF03467B677B68D3F8AC
:104DB0008C207B68D3F8983019461046FBF7CCFF5F
:104DC00003463B677B68D3F890207B68D3F890302C
:104DD00019461046FBF7C0FF0346FB667B68D3F815
:104DE00090207B68D3F8943019461046FBF7B4FF47
:104DF0000346BB667B68D3F890207B68D3F8983075
:104E000019461046FBF7A8FF03467B667B68D3F87C
:104E100094207B68D3F8943019461046FBF79CFF2A
:104E200003463B667B68D3F894207B68D3F89830C0
:104E300019461046FBF790FF0346FB657B68D3F8E5
:104E400098207B68D3F8983019461046FBF784FF0A
:104E50000346BB657B681A6E7B68C3F8A8207B6835
:104E60005A6E7B68C3F8AC207B689A6E7B68C3F887
:104E7000B0207B68B3F950301846FBF719FF0246A3
:104E80007B68C3F8B4207B68B3F952301846FBF74F
:104E90000FFF02467B68C3F8B8207B68B3F9543033
:104EA0001846FBF705FF02467B68C3F8BC207B6809
:104EB000B3F956301846FBF7FBFE02467B68C3F891
:104EC000C0207B68B3F958301846FBF7F1FE024664
:104ED0007B68C3F8C4207B68B3F95A301846FBF7E7
:104EE000E7FE02467B68C3F8C82003F075FE024661
:104EF0007B68DA617B68DA697B689B69D31A18463C
:104F0000FBF7D2FE0346A4491846FBF7D9FF034638
:104F10007B657B68DA697B689A617C687B68D3F81B
:104F2000B4207B68D3F8B43019461046FBF714FF61
:104F300003461D467B68D3F8B8207B68D3F8B830A9
:104F400019461046FBF708FF034619462846FBF7AB
:104F5000FBFD03461D467B68D3F8BC207B68D3F875
:104F6000BC3019461046FBF7F7FE034619462846A3
:104F7000FBF7EAFD034619462046FFF7EBF83865D4
:104F80007B68D3F8B430396D1846FBF7E5FE03466D
:104F90001A467B68C3F8B4207B68D3F8B830396D03
:104FA0001846FBF7D9FE03461A467B68C3F8B820BB
:104FB0007B68D3F8BC30396D1846FBF7CDFE03464D
:104FC0001A467B68C3F8BC207B684FF00002C3F828
:104FD000C0207B684FF00002C3F8C4207B684FF00C
:104FE0000002C3F8C8207B68D3F8C03019461846C1
:104FF000FBF7AAFD03461C46396E4FF07C50FBF7C9
:10500000A1FD0346B96D1846FBF79CFD0346194602
:105010002046FBF7A1FE03461C467B68D3F8C4304C
:1050200019461846FBF790FD03461D46396FB86ECA
:10503000FBF788FD034619462846FBF78DFE03461D
:1050400019462046FBF780FD03461C467B68D3F8D3
:10505000C83019461846FBF777FD03461D46796FA1
:10506000786EFBF771FD034619462846FBF774FE80
:10507000034619462046FBF767FD0346FB647B6841
:10508000D3F8C03019461846FBF75EFD03461C46B0
:10509000396FB86EFBF758FD034619462046FBF7FB
:1050A0005BFE03461C467B68D3F8C430194618469D
:1050B000FBF74AFD03461D46F96E4FF07C50FBF7A7
:1050C00041FD0346B96D1846FBF73CFD0346194602
:1050D0002846FBF741FE034619462046FBF734FD00
:1050E00003461C467B68D3F8C83019461846FBF7C0
:1050F0002BFD03461D46B96FF86DFBF723FD0346F4
:1051000019462846FBF728FE034619462046FBF7BA
:105110001BFD0346BB647B68D3F8C03019461846B4
:10512000FBF712FD03461C46796F786EFBF70AFD0C
:10513000034619462046FBF70FFE03461C467B68D4
:10514000D3F8C43019461846FBF7FEFC03461D464B
:10515000B96FF86DFBF7F8FC034619462846FBF7D4
:10516000FBFD034619462046FBF7EEFC03461C46B2
:105170007B68D3F8C83019461846FBF7E5FC0346B0
:105180001D46F96E4FF07C50FBF7DCFC0346396E90
:105190001846FBF7D7FC01E00000FA440346194625
:1051A0002846FBF7D9FD034619462046FBF7CCFC01
:1051B00003467B64F96CF86CFBF7CEFD03461C4696
:1051C000B96CB86CFBF7C8FD034619462046FBF7DF
:1051D000BBFC03461846FEF771FF38647B6CFB632B
:1051E000796F786EFBF7AEFC034619461846FBF75D
:1051F000ABFC0346BB63F96DB86FFBF7A5FC034638
:1052000019461846FBF7A0FC03467B63F96EF86F5E
:10521000FBF798FC0346396E1846FBF793FC0346F0
:105220001946B86DFBF790FC03463B633B6C19468F
:105230001846FBF789FC03461C46396E4FF07C503C
:10524000FBF780FC0346B96D1846FBF77BFC034671
:1052500019462046FBF780FD03461C46FB6B1946AA
:105260001846FBF771FC03461D46796F786EFBF715
:1052700069FC034619462846FBF76EFD03461946AE
:105280002046FBF761FC0346FB623B6C194618465F
:10529000FBF75AFC03461C46396FB86EFBF752FC0D
:1052A000034619462046FBF757FD03461C46FB6B99
:1052B00019461846FBF748FC03461D46F96DB86FC2
:1052C000FBF742FC034619462846FBF745FD03461B
:1052D00019462046FBF738FC0346BB623B6C194677
:1052E0001846FBF731FC03461C46796E786FFBF7D6
:1052F0002BFC034619462046FBF72EFD03461C46B1
:10530000FB6B19461846FBF71FFC03461D46F96E5A
:105310004FF07C50FBF716FC0346396E1846FBF73E
:1053200011FC034619462846FBF716FD03461946AD
:105330002046FBF709FC03467B627B68D3F8B83054
:10534000396B1846FBF708FD03461C467B68D3F80B
:10535000BC30796B1846FBF7FFFC03461946204624
:10536000FBF7F0FB03461C467B68D3F8C430796A30
:105370001846FBF7F1FC03461D467B68D3F8C8309E
:10538000B96A1846FBF7E8FC034619462846FBF7BE
:10539000D9FB034619462046FBF7D6FB03463B6282
:1053A0007B68D3F8BC30B96B1846FBF7D5FC0346D5
:1053B0001C467B68D3F8B430396B1846FBF7CCFC3D
:1053C000034619462046FBF7BDFB03461C467B6897
:1053D000D3F8C830F96A1846FBF7BEFC03461D46F1
:1053E0007B68D3F8C030796A1846FBF7B5FC0346F2
:1053F00019462846FBF7A6FB034619462046FBF74D
:10540000A3FB0346FB617B68D3F8B430796B184685
:10541000FBF7A2FC03461C467B68D3F8B830B96B97
:105420001846FBF799FC034619462046FBF78AFB12
:1054300003461C467B68D3F8C030B96A1846FBF7B0
:105440008BFC03461D467B68D3F8C430F96A1846C6
:10545000FBF782FC034619462846FBF773FB03461D
:1054600019462046FBF770FB0346BB614FF0000175
:10547000386AFBF705FE0346002B40F0A7804FF08B
:105480000001F869FBF7FCFD0346002B40F09E800D
:105490004FF00001B869FBF7F3FD0346002B40F025
:1054A00095807B68D3F89C404649386AFBF754FCEA
:1054B0000346796D1846FBF74FFC03461946204614
:1054C000FBF742FB03461A467B68C3F89C207B68C7
:1054D000D3F8A0403B49F869FBF73EFC0346796DE1
:1054E0001846FBF739FC034619462046FBF72CFB10
:1054F00003461A467B68C3F8A0207B68D3F8A44013
:105500003049B869FBF728FC0346796D1846FBF76C
:1055100023FC034619462046FBF716FB03461A46B2
:105520007B68C3F8A4207B68D3F8A8402649386A72
:10553000FBF712FC034619462046FBF705FB034622
:105540001A467B68D3F89C3019461046FBF7FCFAE4
:1055500003461A467B68C3F8A8207B68D3F8AC40A2
:105560001949F869FBF7F8FB034619462046FBF793
:10557000EBFA03461A467B68D3F8A030194610466A
:10558000FBF7E2FA03461A467B68C3F8AC207B6857
:10559000D3F8B0400C49B869FBF7DEFB0346194667
:1055A0002046FBF7D1FA03461A467B68D3F8A430AD
:1055B00019461046FBF7C8FA03461A467B68C3F83B
:1055C000B02003E06F12833B9A99993E7B68D3F831
:1055D0008C407B68D3F8903083F000427B68D3F82E
:1055E000A83019461046FBF7B7FB03461D467B68FB
:1055F000D3F894207B68D3F8AC3019461046FBF7FB
:10560000ABFB034619462846FBF79CFA03461D46AA
:105610007B68D3F898207B68D3F8B03019461046E1
:10562000FBF79AFB034619462846FBF78BFA03461D
:10563000796D1846FBF790FB034619462046FBF7A9
:1056400083FA03467B617B68D3F890407B68D3F88C
:105650008C207B68D3F8A83019461046FBF77CFBFA
:1056600003461D467B68D3F894207B68D3F8B0309E
:1056700019461046FBF770FB034619462846FBF710
:1056800063FA03461D467B68D3F898207B68D3F8FD
:10569000AC3019461046FBF75FFB03461946284617
:1056A000FBF750FA0346796D1846FBF755FB0346A6
:1056B00019462046FBF748FA03463B617B68D3F85E
:1056C00094407B68D3F88C207B68D3F8AC301946C3
:1056D0001046FBF741FB03461D467B68D3F890203C
:1056E0007B68D3F8B03019461046FBF735FB03460C
:1056F00019462846FBF726FA03461D467B68D3F871
:1057000098207B68D3F8A83019461046FBF724FB95
:10571000034619462846FBF717FA0346796D1846E3
:10572000FBF71AFB034619462046FBF70DFA034622
:10573000FB607B68D3F898407B68D3F88C207B684B
:10574000D3F8B03019461046FBF706FB03461D465A
:105750007B68D3F890207B68D3F8AC3019461046AC
:10576000FBF7FAFA034619462846FBF7EDF903461C
:105770001D467B68D3F894207B68D3F8A83019467F
:105780001046FBF7E9FA034619462846FBF7DAF913
:105790000346796D1846FBF7DFFA034619462046A3
:1057A000FBF7D2F90346BB607C6879697869FBF73F
:1057B000D3FA03461D4639693869FBF7CDFA03462B
:1057C00019462846FBF7C0F903461D46F968F868F4
:1057D000FBF7C2FA034619462846FBF7B5F903461C
:1057E0001D46B968B868FBF7B7FA0346194628465C
:1057F000FBF7AAF9034619462046FEF7ABFC3865CD
:10580000396D7869FBF7A8FA03461A467B68C3F836
:105810008C20396D3869FBF79FFA03461A467B687E
:10582000C3F89020396DF868FBF796FA03461A46DC
:105830007B68C3F89420396DB868FBF78DFA03468E
:105840001A467B68C3F8982000BF8037BD46B0BDBC
:10585000B0B582B000AF78607B68D3F8903019465D
:105860001846FBF771F903461A467B68D3F8943063
:1058700019461046FBF770FA03461C467B68D3F8BE
:105880008C3019461846FBF75FF903461A467B68C9
:10589000D3F8983019461046FBF75EFA03461946CE
:1058A0002046FBF751F903461C467B68D3F8943039
:1058B0004FF040411846FBF74FFA03461A467B6803
:1058C000D3F8943019461046FBF746FA03461D46B6
:1058D0007B68D3F8983019461846FBF735F903462C
:1058E0001A467B68D3F8983019461046FBF734FA0D
:1058F000034619462846FBF725F903464FF07E512B
:105900001846FBF721F9034619462046FEF7C8FB67
:10591000034683F0004354491846FBF71DFA03463B
:105920001A467B68C3F880207B68D3F890304FF02C
:1059300040411846FBF710FA03461A467B68D3F835
:10594000983019461046FBF707FA03461C467B6859
:10595000D3F88C3019461846FBF7F6F803461A467A
:105960007B68D3F8943019461046FBF7F5F90346E7
:1059700019462046FBF7E8F803461846FEF784FB75
:10598000034683F0004338491846FBF7E5F9034620
:105990001A467B68DA677B68D3F894301946184654
:1059A000FBF7D2F803461A467B68D3F898301946BD
:1059B0001046FBF7D1F903461C467B68D3F88C30C0
:1059C00019461846FBF7C0F803461A467B68D3F819
:1059D000903019461046FBF7BFF90346194620469A
:1059E000FBF7B2F803461C467B68D3F890304FF0C3
:1059F00040411846FBF7B0F903461A467B68D3F8D6
:105A0000903019461046FBF7A7F903461D467B6800
:105A1000D3F8943019461846FBF796F803461A4611
:105A20007B68D3F8943019461046FBF795F9034686
:105A300019462846FBF786F803464FF07E51184674
:105A4000FBF782F8034619462046FEF729FB03467A
:105A500005491846FBF780F903461A467B689A67A2
:105A600000BF0837BD46B0BD3333654280B582B054
:105A700000AF786039607B68012B07D13B684FF637
:105A8000FF72934202D10348FEF73DFB00BF083787
:105A9000BD4680BD280B002080B500AF4FF6FF71DA
:105AA0000120FFF7E3FF80BD80B487B000AFF8604E
:105AB000B9601346FB71BB685A1EBA60002B14BF55
:105AC00001230023DBB2002B0BD0FB685A1CFA60C9
:105AD0001A78FB795340FB75FB7D054AD35CFB715B
